{
  "contractName": "Bridge",
  "abi": [
    {
      "inputs": [
        {
          "internalType": "contract TokenEth",
          "name": "_tokenEth",
          "type": "address"
        },
        {
          "internalType": "contract TokenBsc",
          "name": "_tokenBsc",
          "type": "address"
        }
      ],
      "stateMutability": "nonpayable",
      "type": "constructor"
    },
    {
      "anonymous": false,
      "inputs": [
        {
          "indexed": false,
          "internalType": "address",
          "name": "from",
          "type": "address"
        },
        {
          "indexed": false,
          "internalType": "address",
          "name": "to",
          "type": "address"
        },
        {
          "indexed": false,
          "internalType": "uint256",
          "name": "amount",
          "type": "uint256"
        },
        {
          "indexed": false,
          "internalType": "string",
          "name": "method",
          "type": "string"
        }
      ],
      "name": "transferencia",
      "type": "event"
    },
    {
      "inputs": [
        {
          "internalType": "address",
          "name": "_to",
          "type": "address"
        },
        {
          "internalType": "uint256",
          "name": "_amount",
          "type": "uint256"
        }
      ],
      "name": "ethToBsc",
      "outputs": [],
      "stateMutability": "nonpayable",
      "type": "function"
    },
    {
      "inputs": [
        {
          "internalType": "address",
          "name": "_to",
          "type": "address"
        },
        {
          "internalType": "uint256",
          "name": "_amount",
          "type": "uint256"
        }
      ],
      "name": "bscToEth",
      "outputs": [],
      "stateMutability": "nonpayable",
      "type": "function"
    }
  ],
  "bytecode": "0x608060405234801561001057600080fd5b5060405161074e38038061074e833981810160405281019061003291906100e4565b816000806101000a81548173ffffffffffffffffffffffffffffffffffffffff021916908373ffffffffffffffffffffffffffffffffffffffff16021790555080600160006101000a81548173ffffffffffffffffffffffffffffffffffffffff021916908373ffffffffffffffffffffffffffffffffffffffff16021790555050506101a4565b6000815190506100c981610176565b92915050565b6000815190506100de8161018d565b92915050565b600080604083850312156100f757600080fd5b6000610105858286016100cf565b9250506020610116858286016100ba565b9150509250929050565b600061012b82610156565b9050919050565b600061013d82610120565b9050919050565b600061014f82610120565b9050919050565b600073ffffffffffffffffffffffffffffffffffffffff82169050919050565b61017f81610132565b811461018a57600080fd5b50565b61019681610144565b81146101a157600080fd5b50565b61059b806101b36000396000f3fe608060405234801561001057600080fd5b50600436106100365760003560e01c80638aa0b4491461003b578063d88f015c14610057575b600080fd5b61005560048036038101906100509190610353565b610073565b005b610071600480360381019061006c9190610353565b6101ce565b005b60008054906101000a900473ffffffffffffffffffffffffffffffffffffffff1673ffffffffffffffffffffffffffffffffffffffff16639dc29fac83836040518363ffffffff1660e01b81526004016100ce9291906104c1565b600060405180830381600087803b1580156100e857600080fd5b505af11580156100fc573d6000803e3d6000fd5b50505050600160009054906101000a900473ffffffffffffffffffffffffffffffffffffffff1673ffffffffffffffffffffffffffffffffffffffff166340c10f1983836040518363ffffffff1660e01b815260040161015d9291906104c1565b600060405180830381600087803b15801561017757600080fd5b505af115801561018b573d6000803e3d6000fd5b505050507fdbcf46c04c431f48141556133b20a4977739037284522f179f7bc113ff7377d23383836040516101c293929190610477565b60405180910390a15050565b600160009054906101000a900473ffffffffffffffffffffffffffffffffffffffff1673ffffffffffffffffffffffffffffffffffffffff16639dc29fac83836040518363ffffffff1660e01b815260040161022b9291906104c1565b600060405180830381600087803b15801561024557600080fd5b505af1158015610259573d6000803e3d6000fd5b5050505060008054906101000a900473ffffffffffffffffffffffffffffffffffffffff1673ffffffffffffffffffffffffffffffffffffffff166340c10f1983836040518363ffffffff1660e01b81526004016102b89291906104c1565b600060405180830381600087803b1580156102d257600080fd5b505af11580156102e6573d6000803e3d6000fd5b505050507fdbcf46c04c431f48141556133b20a4977739037284522f179f7bc113ff7377d233838360405161031d9392919061042d565b60405180910390a15050565b60008135905061033881610537565b92915050565b60008135905061034d8161054e565b92915050565b6000806040838503121561036657600080fd5b600061037485828601610329565b92505060206103858582860161033e565b9150509250929050565b610398816104fb565b82525050565b60006103ab6008836104ea565b91507f657468546f4273630000000000000000000000000000000000000000000000006000830152602082019050919050565b60006103eb6008836104ea565b91507f627363546f4574680000000000000000000000000000000000000000000000006000830152602082019050919050565b6104278161052d565b82525050565b6000608082019050610442600083018661038f565b61044f602083018561038f565b61045c604083018461041e565b818103606083015261046d8161039e565b9050949350505050565b600060808201905061048c600083018661038f565b610499602083018561038f565b6104a6604083018461041e565b81810360608301526104b7816103de565b9050949350505050565b60006040820190506104d6600083018561038f565b6104e3602083018461041e565b9392505050565b600082825260208201905092915050565b60006105068261050d565b9050919050565b600073ffffffffffffffffffffffffffffffffffffffff82169050919050565b6000819050919050565b610540816104fb565b811461054b57600080fd5b50565b6105578161052d565b811461056257600080fd5b5056fea2646970667358221220ee1151fddad8ec5315ac4c92fce9abb013ed91483c4f6f8c9d892ff86337947664736f6c63430008000033",
  "immutableReferences": {},
  "source": "// SPDX-License-Identifier: MIT\npragma solidity >=0.4.22 <0.9.0;\n\n// import '@openzeppelin/contracts/token/ERC20/IERC20.sol';\nimport \"./TokenEth.sol\";\nimport \"./TokenBsc.sol\";\n\ncontract Bridge {\n  TokenEth tokenEth;\n  TokenBsc tokenBsc;\n\n  constructor(TokenEth _tokenEth, TokenBsc _tokenBsc) {\n    tokenEth = _tokenEth;\n    tokenBsc = _tokenBsc;\n  }\n\n  event transferencia(address from, address to, uint amount, string method);\n\n  function ethToBsc(address _to, uint _amount) external{\n    //aprove this contract first on code  \n    tokenBsc.burn(_to, _amount);\n    tokenEth.mint(_to, _amount);\n\n    emit transferencia(msg.sender, _to, _amount, \"ethToBsc\");\n  }\n  \n  function bscToEth(address _to, uint _amount) external{\n    //aprove this contract first on code  \n    tokenEth.burn(_to, _amount);\n    tokenBsc.mint(_to, _amount);\n\n    emit transferencia(msg.sender, _to, _amount, \"bscToEth\");\n  }\n  \n}\n",
  "sourcePath": "/Volumes/APPLE HDD/reactprojects/ponte/contracts/Bridge.sol",
  "compiler": {
    "name": "solc",
    "version": "0.8.0+commit.c7dfd78e.Emscripten.clang"
  },
  "schemaVersion": "3.4.3",
  "updatedAt": "2021-10-06T12:06:18.096Z",
  "networkType": "ethereum",
  "devdoc": {
    "kind": "dev",
    "methods": {},
    "version": 1
  },
  "userdoc": {
    "kind": "user",
    "methods": {},
    "version": 1
  }
}